{"abi":[{"type":"constructor","inputs":[],"stateMutability":"nonpayable"},{"type":"function","name":"SMART_ROUTER","inputs":[],"outputs":[{"name":"","type":"address","internalType":"address"}],"stateMutability":"view"},{"type":"function","name":"approveForRouter","inputs":[{"name":"token","type":"address","internalType":"address"},{"name":"amount","type":"uint256","internalType":"uint256"}],"outputs":[],"stateMutability":"nonpayable"},{"type":"function","name":"exactOutputSingle","inputs":[{"name":"params","type":"tuple","internalType":"struct ISmartRouter.ExactOutputSingleParams","components":[{"name":"tokenIn","type":"address","internalType":"address"},{"name":"tokenOut","type":"address","internalType":"address"},{"name":"fee","type":"uint24","internalType":"uint24"},{"name":"recipient","type":"address","internalType":"address"},{"name":"deadline","type":"uint256","internalType":"uint256"},{"name":"amountOut","type":"uint256","internalType":"uint256"},{"name":"amountInMaximum","type":"uint256","internalType":"uint256"},{"name":"sqrtPriceLimitX96","type":"uint160","internalType":"uint160"}]}],"outputs":[{"name":"amountIn","type":"uint256","internalType":"uint256"}],"stateMutability":"nonpayable"},{"type":"function","name":"owner","inputs":[],"outputs":[{"name":"","type":"address","internalType":"address"}],"stateMutability":"view"},{"type":"function","name":"readPool","inputs":[{"name":"poolAddress","type":"address","internalType":"address"}],"outputs":[{"name":"sqrtPriceX96","type":"uint256","internalType":"uint256"},{"name":"liquidity","type":"uint256","internalType":"uint256"},{"name":"tickSpacing","type":"int24","internalType":"int24"}],"stateMutability":"view"},{"type":"function","name":"renounceOwnership","inputs":[],"outputs":[],"stateMutability":"nonpayable"},{"type":"function","name":"resetAllowance","inputs":[{"name":"token","type":"address","internalType":"address"}],"outputs":[],"stateMutability":"nonpayable"},{"type":"function","name":"setRouter","inputs":[{"name":"_router","type":"address","internalType":"address"}],"outputs":[],"stateMutability":"nonpayable"},{"type":"function","name":"swapTokensForExactTokens","inputs":[{"name":"amountOut","type":"uint256","internalType":"uint256"},{"name":"amountInMax","type":"uint256","internalType":"uint256"},{"name":"path","type":"address[]","internalType":"address[]"},{"name":"to","type":"address","internalType":"address"}],"outputs":[{"name":"amountIn","type":"uint256","internalType":"uint256"}],"stateMutability":"nonpayable"},{"type":"function","name":"transferOwnership","inputs":[{"name":"newOwner","type":"address","internalType":"address"}],"outputs":[],"stateMutability":"nonpayable"},{"type":"event","name":"OwnershipTransferred","inputs":[{"name":"previousOwner","type":"address","indexed":true,"internalType":"address"},{"name":"newOwner","type":"address","indexed":true,"internalType":"address"}],"anonymous":false},{"type":"error","name":"OwnableInvalidOwner","inputs":[{"name":"owner","type":"address","internalType":"address"}]},{"type":"error","name":"OwnableUnauthorizedAccount","inputs":[{"name":"account","type":"address","internalType":"address"}]}],"bytecode":{"object":"0x6080604052600180546001600160a01b0319167313f4ea83d0bd40e75c8222255bc855a974568dd4179055348015603557600080fd5b503380605b57604051631e4fbdf760e01b81526000600482015260240160405180910390fd5b6062816089565b50600154600280546001600160a01b0319166001600160a01b0390921691909117905560d9565b600080546001600160a01b038381166001600160a01b0319831681178455604051919092169283917f8be0079c531659141344cd1fd0a4f28419497f9722a3daafe3b4186f6b6457e09190a35050565b610d0b806100e86000396000f3fe608060405234801561001057600080fd5b506004361061009e5760003560e01c8063db3e219811610066578063db3e21981461013c578063e91e2f6d1461014f578063f239b05c14610162578063f2fde38b14610175578063fe1319941461018857600080fd5b806342712a67146100a357806351c28acf146100c9578063715018a6146100fa5780638da5cb5b14610104578063c0d7865514610129575b600080fd5b6100b66100b1366004610904565b61019b565b6040519081526020015b60405180910390f35b6100dc6100d73660046109a0565b61036e565b60408051938452602084019290925260020b908201526060016100c0565b6101026104bd565b005b6000546001600160a01b03165b6040516001600160a01b0390911681526020016100c0565b6101026101373660046109a0565b6104d1565b6100b661014a3660046109c4565b610557565b61010261015d3660046109a0565b61072e565b6101026101703660046109e0565b6107ab565b6101026101833660046109a0565b610829565b600154610111906001600160a01b031681565b600080848460008181106101b1576101b1610a0c565b90506020020160208101906101c691906109a0565b6040516323b872dd60e01b8152336004820152306024820152604481018890529091506001600160a01b038216906323b872dd906064016020604051808303816000875af115801561021c573d6000803e3d6000fd5b505050506040513d601f19601f820116820180604052508101906102409190610a32565b5061024b81876107ab565b6002546040516342712a6760e01b81526001600160a01b03909116906342712a6790610283908a908a908a908a908a90600401610a4d565b6020604051808303816000875af11580156102a2573d6000803e3d6000fd5b505050506040513d601f19601f820116820180604052508101906102c69190610ac0565b91508582101561035b576001600160a01b03811663a9059cbb336102ea858a610ad9565b6040516001600160e01b031960e085901b1681526001600160a01b03909216600483015260248201526044016020604051808303816000875af1158015610335573d6000803e3d6000fd5b505050506040513d601f19601f820116820180604052508101906103599190610a32565b505b6103648161072e565b5095945050505050565b6000806000808490506000816001600160a01b0316633850c7bd6040518163ffffffff1660e01b815260040160e060405180830381865afa1580156103b7573d6000803e3d6000fd5b505050506040513d601f19601f820116820180604052508101906103db9190610b40565b905080600001516001600160a01b03169450816001600160a01b0316631a6865026040518163ffffffff1660e01b8152600401602060405180830381865afa15801561042b573d6000803e3d6000fd5b505050506040513d601f19601f8201168201806040525081019061044f9190610ac0565b9350816001600160a01b031663d0c93a7c6040518163ffffffff1660e01b8152600401602060405180830381865afa15801561048f573d6000803e3d6000fd5b505050506040513d601f19601f820116820180604052508101906104b39190610c00565b9496939550505050565b6104c5610867565b6104cf6000610894565b565b6104d9610867565b6001600160a01b03811661052b5760405162461bcd60e51b8152602060048201526014602482015273496e76616c6964207a65726f206164647265737360601b60448201526064015b60405180910390fd5b600180546001600160a01b039092166001600160a01b0319928316811790915560028054909216179055565b600061056660208301836109a0565b6040516323b872dd60e01b815233600482015230602482015260c084013560448201526001600160a01b0391909116906323b872dd906064016020604051808303816000875af11580156105be573d6000803e3d6000fd5b505050506040513d601f19601f820116820180604052508101906105e29190610a32565b506105fd6105f360208401846109a0565b8360c001356107ab565b600254604051631b67c43360e31b81526001600160a01b039091169063db3e21989061062d908590600401610c2e565b6020604051808303816000875af115801561064c573d6000803e3d6000fd5b505050506040513d601f19601f820116820180604052508101906106709190610ac0565b90508160c001358110156107195761068b60208301836109a0565b6001600160a01b031663a9059cbb336106a88460c0870135610ad9565b6040516001600160e01b031960e085901b1681526001600160a01b03909216600483015260248201526044016020604051808303816000875af11580156106f3573d6000803e3d6000fd5b505050506040513d601f19601f820116820180604052508101906107179190610a32565b505b61072961015d60208401846109a0565b919050565b60015460405163095ea7b360e01b81526001600160a01b03918216600482015260006024820152829182169063095ea7b3906044016020604051808303816000875af1158015610782573d6000803e3d6000fd5b505050506040513d601f19601f820116820180604052508101906107a69190610a32565b505050565b60015460405163095ea7b360e01b81526001600160a01b03918216600482015260248101839052839182169063095ea7b3906044016020604051808303816000875af11580156107ff573d6000803e3d6000fd5b505050506040513d601f19601f820116820180604052508101906108239190610a32565b50505050565b610831610867565b6001600160a01b03811661085b57604051631e4fbdf760e01b815260006004820152602401610522565b61086481610894565b50565b6000546001600160a01b031633146104cf5760405163118cdaa760e01b8152336004820152602401610522565b600080546001600160a01b038381166001600160a01b0319831681178455604051919092169283917f8be0079c531659141344cd1fd0a4f28419497f9722a3daafe3b4186f6b6457e09190a35050565b6001600160a01b038116811461086457600080fd5b8035610729816108e4565b60008060008060006080868803121561091c57600080fd5b8535945060208601359350604086013567ffffffffffffffff81111561094157600080fd5b8601601f8101881361095257600080fd5b803567ffffffffffffffff81111561096957600080fd5b8860208260051b840101111561097e57600080fd5b60209190910193509150610994606087016108f9565b90509295509295909350565b6000602082840312156109b257600080fd5b81356109bd816108e4565b9392505050565b60006101008284031280156109d857600080fd5b509092915050565b600080604083850312156109f357600080fd5b82356109fe816108e4565b946020939093013593505050565b634e487b7160e01b600052603260045260246000fd5b8051801515811461072957600080fd5b600060208284031215610a4457600080fd5b6109bd82610a22565b85815260208101859052608060408201819052810183905260008460a08301825b86811015610a9e578235610a81816108e4565b6001600160a01b0316825260209283019290910190600101610a6e565b506001600160a01b039490941660609390930192909252509095945050505050565b600060208284031215610ad257600080fd5b5051919050565b81810381811115610afa57634e487b7160e01b600052601160045260246000fd5b92915050565b8051610729816108e4565b8051600281900b811461072957600080fd5b805161ffff8116811461072957600080fd5b805160ff8116811461072957600080fd5b600060e0828403128015610b5357600080fd5b5060405160e0810167ffffffffffffffff81118282101715610b8557634e487b7160e01b600052604160045260246000fd5b604052610b9183610b00565b8152610b9f60208401610b0b565b6020820152610bb060408401610b1d565b6040820152610bc160608401610b1d565b6060820152610bd260808401610b1d565b6080820152610be360a08401610b2f565b60a0820152610bf460c08401610a22565b60c08201529392505050565b600060208284031215610c1257600080fd5b6109bd82610b0b565b803562ffffff8116811461072957600080fd5b61010081018235610c3e816108e4565b6001600160a01b031682526020830135610c57816108e4565b6001600160a01b03166020830152610c7160408401610c1b565b62ffffff166040830152610c87606084016108f9565b6001600160a01b031660608301526080838101359083015260a0808401359083015260c08084013590830152610cbf60e084016108f9565b6001600160a01b03811660e0840152509291505056fea26469706673582212202d780c7a536d8fd5fc35020dc75035dabc2d098643dd6bcefba22dddaeb63a0a64736f6c634300081a0033","linkReferences":{}},"methodIdentifiers":{"SMART_ROUTER()":"fe131994","approveForRouter(address,uint256)":"f239b05c","exactOutputSingle((address,address,uint24,address,uint256,uint256,uint256,uint160))":"db3e2198","owner()":"8da5cb5b","readPool(address)":"51c28acf","renounceOwnership()":"715018a6","resetAllowance(address)":"e91e2f6d","setRouter(address)":"c0d78655","swapTokensForExactTokens(uint256,uint256,address[],address)":"42712a67","transferOwnership(address)":"f2fde38b"},"id":25}