{"abi":[{"type":"constructor","inputs":[],"stateMutability":"nonpayable"},{"type":"function","name":"SMART_ROUTER","inputs":[],"outputs":[{"name":"","type":"address","internalType":"address"}],"stateMutability":"view"},{"type":"function","name":"approveForRouter","inputs":[{"name":"token","type":"address","internalType":"address"},{"name":"amount","type":"uint256","internalType":"uint256"}],"outputs":[],"stateMutability":"nonpayable"},{"type":"function","name":"exactOutputSingle","inputs":[{"name":"params","type":"tuple","internalType":"struct ISmartRouter.ExactOutputSingleParams","components":[{"name":"tokenIn","type":"address","internalType":"address"},{"name":"tokenOut","type":"address","internalType":"address"},{"name":"fee","type":"uint24","internalType":"uint24"},{"name":"recipient","type":"address","internalType":"address"},{"name":"amountOut","type":"uint256","internalType":"uint256"},{"name":"amountInMaximum","type":"uint256","internalType":"uint256"},{"name":"sqrtPriceLimitX96","type":"uint160","internalType":"uint160"}]}],"outputs":[{"name":"amountIn","type":"uint256","internalType":"uint256"}],"stateMutability":"nonpayable"},{"type":"function","name":"owner","inputs":[],"outputs":[{"name":"","type":"address","internalType":"address"}],"stateMutability":"view"},{"type":"function","name":"readPool","inputs":[{"name":"poolAddress","type":"address","internalType":"address"}],"outputs":[{"name":"sqrtPriceX96","type":"uint256","internalType":"uint256"},{"name":"liquidity","type":"uint256","internalType":"uint256"},{"name":"tickSpacing","type":"int24","internalType":"int24"}],"stateMutability":"view"},{"type":"function","name":"renounceOwnership","inputs":[],"outputs":[],"stateMutability":"nonpayable"},{"type":"function","name":"resetAllowance","inputs":[{"name":"token","type":"address","internalType":"address"}],"outputs":[],"stateMutability":"nonpayable"},{"type":"function","name":"setRouter","inputs":[{"name":"_router","type":"address","internalType":"address"}],"outputs":[],"stateMutability":"nonpayable"},{"type":"function","name":"swapTokensForExactTokens","inputs":[{"name":"amountOut","type":"uint256","internalType":"uint256"},{"name":"amountInMax","type":"uint256","internalType":"uint256"},{"name":"path","type":"address[]","internalType":"address[]"},{"name":"to","type":"address","internalType":"address"}],"outputs":[{"name":"amountIn","type":"uint256","internalType":"uint256"}],"stateMutability":"nonpayable"},{"type":"function","name":"transferOwnership","inputs":[{"name":"newOwner","type":"address","internalType":"address"}],"outputs":[],"stateMutability":"nonpayable"},{"type":"event","name":"OwnershipTransferred","inputs":[{"name":"previousOwner","type":"address","indexed":true,"internalType":"address"},{"name":"newOwner","type":"address","indexed":true,"internalType":"address"}],"anonymous":false},{"type":"error","name":"OwnableInvalidOwner","inputs":[{"name":"owner","type":"address","internalType":"address"}]},{"type":"error","name":"OwnableUnauthorizedAccount","inputs":[{"name":"account","type":"address","internalType":"address"}]}],"bytecode":{"object":"0x6080604052600180546001600160a01b0319167313f4ea83d0bd40e75c8222255bc855a974568dd4179055348015603557600080fd5b503380605b57604051631e4fbdf760e01b81526000600482015260240160405180910390fd5b6062816089565b50600154600280546001600160a01b0319166001600160a01b0390921691909117905560d9565b600080546001600160a01b038381166001600160a01b0319831681178455604051919092169283917f8be0079c531659141344cd1fd0a4f28419497f9722a3daafe3b4186f6b6457e09190a35050565b610cf6806100e86000396000f3fe608060405234801561001057600080fd5b506004361061009e5760003560e01c8063c0d7865511610066578063c0d786551461013c578063e91e2f6d1461014f578063f239b05c14610162578063f2fde38b14610175578063fe1319941461018857600080fd5b806342712a67146100a35780635023b4df146100c957806351c28acf146100dc578063715018a61461010d5780638da5cb5b14610117575b600080fd5b6100b66100b1366004610904565b61019b565b6040519081526020015b60405180910390f35b6100b66100d73660046109a0565b61036e565b6100ef6100ea3660046109bb565b610545565b60408051938452602084019290925260020b908201526060016100c0565b610115610694565b005b6000546001600160a01b03165b6040516001600160a01b0390911681526020016100c0565b61011561014a3660046109bb565b6106a8565b61011561015d3660046109bb565b61072e565b6101156101703660046109df565b6107ab565b6101156101833660046109bb565b610829565b600154610124906001600160a01b031681565b600080848460008181106101b1576101b1610a0b565b90506020020160208101906101c691906109bb565b6040516323b872dd60e01b8152336004820152306024820152604481018890529091506001600160a01b038216906323b872dd906064016020604051808303816000875af115801561021c573d6000803e3d6000fd5b505050506040513d601f19601f820116820180604052508101906102409190610a31565b5061024b81876107ab565b6002546040516342712a6760e01b81526001600160a01b03909116906342712a6790610283908a908a908a908a908a90600401610a4c565b6020604051808303816000875af11580156102a2573d6000803e3d6000fd5b505050506040513d601f19601f820116820180604052508101906102c69190610abf565b91508582101561035b576001600160a01b03811663a9059cbb336102ea858a610ad8565b6040516001600160e01b031960e085901b1681526001600160a01b03909216600483015260248201526044016020604051808303816000875af1158015610335573d6000803e3d6000fd5b505050506040513d601f19601f820116820180604052508101906103599190610a31565b505b6103648161072e565b5095945050505050565b600061037d60208301836109bb565b6040516323b872dd60e01b815233600482015230602482015260a084013560448201526001600160a01b0391909116906323b872dd906064016020604051808303816000875af11580156103d5573d6000803e3d6000fd5b505050506040513d601f19601f820116820180604052508101906103f99190610a31565b5061041461040a60208401846109bb565b8360a001356107ab565b600254604051635023b4df60e01b81526001600160a01b0390911690635023b4df90610444908590600401610aff565b6020604051808303816000875af1158015610463573d6000803e3d6000fd5b505050506040513d601f19601f820116820180604052508101906104879190610abf565b90508160a00135811015610530576104a260208301836109bb565b6001600160a01b031663a9059cbb336104bf8460a0870135610ad8565b6040516001600160e01b031960e085901b1681526001600160a01b03909216600483015260248201526044016020604051808303816000875af115801561050a573d6000803e3d6000fd5b505050506040513d601f19601f8201168201806040525081019061052e9190610a31565b505b61054061015d60208401846109bb565b919050565b6000806000808490506000816001600160a01b0316633850c7bd6040518163ffffffff1660e01b815260040160e060405180830381865afa15801561058e573d6000803e3d6000fd5b505050506040513d601f19601f820116820180604052508101906105b29190610be5565b905080600001516001600160a01b03169450816001600160a01b0316631a6865026040518163ffffffff1660e01b8152600401602060405180830381865afa158015610602573d6000803e3d6000fd5b505050506040513d601f19601f820116820180604052508101906106269190610abf565b9350816001600160a01b031663d0c93a7c6040518163ffffffff1660e01b8152600401602060405180830381865afa158015610666573d6000803e3d6000fd5b505050506040513d601f19601f8201168201806040525081019061068a9190610ca5565b9496939550505050565b61069c610867565b6106a66000610894565b565b6106b0610867565b6001600160a01b0381166107025760405162461bcd60e51b8152602060048201526014602482015273496e76616c6964207a65726f206164647265737360601b60448201526064015b60405180910390fd5b600180546001600160a01b039092166001600160a01b0319928316811790915560028054909216179055565b60015460405163095ea7b360e01b81526001600160a01b03918216600482015260006024820152829182169063095ea7b3906044016020604051808303816000875af1158015610782573d6000803e3d6000fd5b505050506040513d601f19601f820116820180604052508101906107a69190610a31565b505050565b60015460405163095ea7b360e01b81526001600160a01b03918216600482015260248101839052839182169063095ea7b3906044016020604051808303816000875af11580156107ff573d6000803e3d6000fd5b505050506040513d601f19601f820116820180604052508101906108239190610a31565b50505050565b610831610867565b6001600160a01b03811661085b57604051631e4fbdf760e01b8152600060048201526024016106f9565b61086481610894565b50565b6000546001600160a01b031633146106a65760405163118cdaa760e01b81523360048201526024016106f9565b600080546001600160a01b038381166001600160a01b0319831681178455604051919092169283917f8be0079c531659141344cd1fd0a4f28419497f9722a3daafe3b4186f6b6457e09190a35050565b6001600160a01b038116811461086457600080fd5b8035610540816108e4565b60008060008060006080868803121561091c57600080fd5b8535945060208601359350604086013567ffffffffffffffff81111561094157600080fd5b8601601f8101881361095257600080fd5b803567ffffffffffffffff81111561096957600080fd5b8860208260051b840101111561097e57600080fd5b60209190910193509150610994606087016108f9565b90509295509295909350565b600060e08284031280156109b357600080fd5b509092915050565b6000602082840312156109cd57600080fd5b81356109d8816108e4565b9392505050565b600080604083850312156109f257600080fd5b82356109fd816108e4565b946020939093013593505050565b634e487b7160e01b600052603260045260246000fd5b8051801515811461054057600080fd5b600060208284031215610a4357600080fd5b6109d882610a21565b85815260208101859052608060408201819052810183905260008460a08301825b86811015610a9d578235610a80816108e4565b6001600160a01b0316825260209283019290910190600101610a6d565b506001600160a01b039490941660609390930192909252509095945050505050565b600060208284031215610ad157600080fd5b5051919050565b81810381811115610af957634e487b7160e01b600052601160045260246000fd5b92915050565b60e081018235610b0e816108e4565b6001600160a01b031682526020830135610b27816108e4565b6001600160a01b03166020830152604083013562ffffff81168114610b4b57600080fd5b62ffffff166040830152610b61606084016108f9565b6001600160a01b031660608301526080838101359083015260a08084013590830152610b8f60c084016108f9565b6001600160a01b03811660c08401525092915050565b8051610540816108e4565b8051600281900b811461054057600080fd5b805161ffff8116811461054057600080fd5b805160ff8116811461054057600080fd5b600060e0828403128015610bf857600080fd5b5060405160e0810167ffffffffffffffff81118282101715610c2a57634e487b7160e01b600052604160045260246000fd5b604052610c3683610ba5565b8152610c4460208401610bb0565b6020820152610c5560408401610bc2565b6040820152610c6660608401610bc2565b6060820152610c7760808401610bc2565b6080820152610c8860a08401610bd4565b60a0820152610c9960c08401610a21565b60c08201529392505050565b600060208284031215610cb757600080fd5b6109d882610bb056fea26469706673582212203b36af2ee4935919ad8a7936002a794d5b876d215283b621c834494accb0ab0864736f6c634300081a0033","linkReferences":{}},"methodIdentifiers":{"SMART_ROUTER()":"fe131994","approveForRouter(address,uint256)":"f239b05c","exactOutputSingle((address,address,uint24,address,uint256,uint256,uint160))":"5023b4df","owner()":"8da5cb5b","readPool(address)":"51c28acf","renounceOwnership()":"715018a6","resetAllowance(address)":"e91e2f6d","setRouter(address)":"c0d78655","swapTokensForExactTokens(uint256,uint256,address[],address)":"42712a67","transferOwnership(address)":"f2fde38b"},"id":24}